:020000040800F2
:10000000B006002089010008650500087104000899
:10001000A104000843020008551100080000000078
:10002000000000000000000000000000FD0B0008C0
:100030004702000800000000A90A0008E90C0008B7
:10004000A3010008A3010008A3010008A301000800
:10005000A3010008A3010008A3010008A3010008F0
:10006000A3010008A3010008A3010008A3010008E0
:10007000A3010008A3010008A3010008A3010008D0
:10008000A3010008A3010008A3010008A3010008C0
:10009000A3010008A3010008A3010008A3010008B0
:1000A000A3010008A3010008A3010008A3010008A0
:1000B0008D0D0008A3010008A3010008A30100089A
:1000C000A3010008A3010008A3010008A301000880
:1000D000A3010008A3010008A3010008AD10000857
:1000E000A3010008A3010008A301000800F002F822
:1000F00000F03AF80AA090E8000C82448344AAF188
:100100000107DA4501D100F02FF8AFF2090EBAE885
:100110000F0013F0010F18BFFB1A43F0010318473B
:10012000E023000000240000103A24BF78C878C102
:10013000FAD8520724BF30C830C144BF04680C60ED
:10014000704700000023002400250026103A28BF35
:1001500078C1FBD8520728BF30C148BF0B60704739
:100160001FB51FBD10B510BD00F031F81146FFF7E7
:10017000F7FF01F025F800F04FF803B4FFF7F2FFA6
:1001800003BC00F057F800000948804709480047C1
:10019000FEE7FEE7FEE7FEE7FEE7FEE7FEE7FEE737
:1001A000FEE7FEE704480549054A064B7047000094
:1001B000ED0C0008ED000008B0000020B0060020A3
:1001C000B0020020B00200207047704770477546AB
:1001D00000F02CF8AE4605006946534620F00700B3
:1001E000854618B020B5FFF7DDFFBDE820404FF091
:1001F00000064FF000074FF000084FF0000B21F011
:100200000701AC46ACE8C009ACE8C009ACE8C009DD
:10021000ACE8C0098D46704710B50446AFF30080C6
:100220002046BDE81040FFF7A8BF00000048704717
:100230004C00002001491820ABBEFEE7260002005A
:10024000704700BFFEE7704700B5034603E04FF478
:100250007A7000F011F8181EA3F10103F7D100BD68
:1002600010B5044603E04FF47A70FFF7EDFF201E4F
:10027000A4F10104F7D110BD00EBC001C9004FF09B
:10028000E0225161002191610521116100BF4FF011
:10029000E021096901F480310029F8D004214FF0F0
:1002A000E022116170472DE9F04102460025002649
:1002B000002000230024002791F803C00CF00F0554
:1002C00091F803C00CF0100CBCF1000F03D091F8B2
:1002D00002C04CEA050591F800C0BCF1000F31D016
:1002E000146800202BE04FF0010C0CFA00F3B1F879
:1002F00000C00CEA03069E4220D183004FF00F0C91
:100300000CFA03F7BC4305FA03FC4CEA040491F829
:1003100003C0BCF1280F06D14FF0010C0CFA00FC11
:10032000C2F814C00AE091F803C0BCF1480F05D12F
:100330004FF0010C0CFA00FCC2F810C0401C082859
:10034000D1D31460B1F800C0BCF1FF0F34DD5468A4
:1003500000202EE000F1080C4FF0010808FA0CF321
:10036000B1F800C00CEA03069E4221D183004FF091
:100370000F0C0CFA03F7BC4305FA03FC4CEA040427
:1003800091F803C0BCF1280F05D100F1080C08FA60
:100390000CF8C2F8148091F803C0BCF1480F07D1E3
:1003A00000F1080C4FF0010808FA0CF8C2F81080B0
:1003B000401C0828CED35460BDE8F081F0B50A4651
:1003C000002300240021002500F00046B6F1004F74
:1003D00002D11D4EF16901E01B4E7168C0F3034567
:1003E00083B200F44016B6F5401F08D121F07061C9
:1003F000154E766826F07066134F7E6012E000F4AA
:100400008016B6F5801F06D1032606FA05F4A1432F
:1004100041F0706106E0460D360103FA06F6B1437D
:1004200041F0706122B1460D360103FA06F6314300
:1004300000F00046B6F1004F02D1034EF16101E039
:10044000014E7160F0BD0000000001400246002036
:1004500093680B400BB1012000E000207047416120
:100460007047016170470AB1016100E04161704766
:1004700000BFFEE708B50121082000F0AFFB4020D7
:10048000ADF8000010208DF8030003208DF8020065
:1004900069460248FFF707FF08BD0000000C014055
:1004A00000BFFEE710B5044610210C48FFF7D7FF48
:1004B00020210A48FFF7D5FF4FF480510848FFF785
:1004C000CEFF4FF400510648FFF7CBFFA0B200F07B
:1004D000D7FAA0B200F0DEFA10BD0000000801401B
:1004E000000C014010B507480088401F81B2064843
:1004F00000F044FD0548008881B2034800F040FD4B
:1005000010BD000018000020000400401C00002066
:1005100008B50121042000F061FB0121082000F052
:100520005DFB10208DF803003020ADF800000320A3
:100530008DF8020069460948FFF7B5FE10208DF8D6
:1005400003004FF44050ADF8000003208DF8020086
:1005500069460348FFF7A7FE08BD000000080140F8
:10056000000C01407047000070B5002100230F22ED
:10057000C47804B3154C246804F4E064C4F5E06462
:10058000210AC1F10403CA40447804FA03F18478D3
:100590001440214309010E4C0678A155047804F05B
:1005A0001F050124AC4005786D11AD0005F1E02573
:1005B000C5F8004109E0047804F01F050124AC40AF
:1005C000044D0678761145F8264070BD0CED00E02C
:1005D00000E400E080E100E002490143024A1160CA
:1005E000704700000000FA050CED00E070B5002433
:1005F0000EE00021204600F0F0F8002504E0002085
:1006000000F0D9F9681CC5B2802DF8DB601CC4B2BB
:10061000082CEEDB70BD000008B50121082000F0B9
:10062000DDFA14208DF8030003208DF802004FF44A
:100630008070ADF8000069460A48FFF734FE4FF4B9
:100640000070ADF8000069460648FFF72CFE012255
:1006500011020448FFF707FF012251020148FFF78A
:1006600002FF08BD000C014070B50546002415E0EE
:100670008020204100EA05024FF400710E48FFF788
:10068000F2FE012211020C48FFF7EDFE00224FF4AA
:1006900080710948FFF7E7FE601CC4B2082CE7DB55
:1006A000012211020448FFF7DEFE00224FF48071A0
:1006B0000148FFF7D8FE70BD000C014010B50122C3
:1006C00051020A48FFF7CFFE012211020748FFF747
:1006D000CAFE00224FF400710448FFF7C4FE002256
:1006E0004FF480710148FFF7BEFE10BD000C0140C1
:1006F00010B500224FF400710648FFF7B4FE012246
:1007000011020448FFF7AFFE012251020148FFF732
:10071000AAFE10BD000C014070B5002406E00025C3
:1007200000E06D1CB5F57A7FFBD3641CB4F57A7FCD
:10073000F5D3FFF771FFAE2000F02DF9D52000F0C2
:100740002AF9802000F027F9A82000F024F93F20A2
:1007500000F021F9D32000F01EF9002000F01BF971
:10076000402000F018F9A12000F015F9C82000F091
:1007700012F9DA2000F00FF9122000F00CF98120B4
:1007800000F009F9CF2000F006F9D92000F003F9B4
:10079000F12000F000F9DB2000F0FDF8302000F03F
:1007A000FAF8A42000F0F7F8A62000F0F4F88D2065
:1007B00000F0F1F8142000F0EEF8AF2000F0EBF8B4
:1007C000FFF714FF70BD10B50246012000E0504352
:1007D0000B1EA1F10101FAD110BD70B505460C4602
:1007E00045F0B00000F0D7F8102141EA141000F0F5
:1007F000D2F804F00F0000F0CEF870BD2DE9F04102
:1008000005460E461746721ED206110E6A1E520685
:10081000100EFFF7E2FF002409E0A7F12001134AC0
:1008200002EB0111085D00F0C6F8601CC4B2082C90
:10083000F3DB721ED206110E6A1E012303EB420285
:10084000D0B2FFF7CAFF00240BE0A7F12001074A4E
:1008500002EB011204F10801505C00F0ACF8601CDE
:10086000C4B2082CF1DBBDE8F08100000E1F0008C7
:100870002DE9F04781460E4690461F4600241DE0B4
:10088000381B411E1020FFF79EFFB8FBF0F000F070
:100890000F050A2D08DA05F13000C2B23019C1B2D5
:1008A0004846FFF7ABFF07E005F13700C2B2301949
:1008B000C1B24846FFF7A2FF601CC4B2BC42DFDBF6
:1008C000BDE8F0872DE9F04780460E4617461D46E5
:1008D000002415E0281B411E0A20FFF774FFB7FB18
:1008E000F0F00A21B0FBF1F201FB120000F1300937
:1008F0003019C1B24A464046FFF780FF601CC4B2BF
:10090000AC42E7DBBDE8F0872DE9F0478146884639
:1009100015461E46002D06DB2B2241464846FFF7B2
:100920006DFF2F4605E02D2241464846FFF766FF42
:100930006F42002417E0301B411E0A20FFF743FFDF
:10094000B7FBF0F00A21B0FBF1F201FB120000F15D
:10095000300A08EB0400401CC1B252464846FFF77B
:100960004DFF601CC4B2B442E5DBBDE8F0872DE961
:10097000F04107460E461546002407E02A5D30196F
:10098000C1B23846FFF73AFF601CC4B2285D0028A8
:10099000F4D1BDE8F08110B50446FFF78FFE782052
:1009A000FFF762FE0020FFF75FFE2046FFF75CFEC8
:1009B000FFF79EFE10BD10B50446FFF77FFE7820BE
:1009C000FFF752FE4020FFF74FFE2046FFF74CFE98
:1009D000FFF78EFE10BD000000B589B00121022096
:1009E00000F0ECF80121082000F0F8F818208DF84C
:1009F00023000320ADF820008DF8220008A91E482E
:100A0000FFF751FC01211C48FFF729FD02211A487C
:100A1000FFF725FD0020ADF81A00ADF816006320A1
:100A2000ADF818004720ADF8140000208DF81C0028
:100A300005A9124800F0A8FA01A800F095FA602074
:100A4000ADF804000020ADF80C000120ADF8060060
:100A50006420ADF80A0001A9084800F0F7F901A9DF
:100A6000064800F043FA054800F0EAF9012103487E
:100A700000F0C0F909B000BD000C014000040040C6
:100A800010B504462146024800F078FA10BD000077
:100A90000004004010B504462146024800F070FAF8
:100AA00010BD000000040040704700002DE9F04731
:100AB00004460D46154E0027601B01F0C5F8144989
:100AC0000860144801681248006801F0ABF98246DA
:100AD000394601F0D1F880460D480168304601F0F2
:100AE000CBF882460C4901F093F98146414601F06A
:100AF0002DF80A490860064800680649086007485A
:100B0000006801F085F8BDE8F08700000000204192
:100B10002C000020340000200000C84230000020DB
:100B20002DE9F84F04460D464FF082461E4F4FF018
:100B30000008284601F088F88146214601F068F94E
:100B40001A490860084601681948006800F0FEFF6D
:100B500017490860174801681448006801F062F9F5
:100B60008346414601F088F88146114801683846BD
:100B700001F082F883460D480168304601F07CF8A8
:100B80005946009000F0E2FF8246494600F0DEFF41
:100B90000949086005480068064908600648006879
:100BA00001F036F8BDE8F88FD044D83B380000207B
:100BB00020000020400000203C00002029B1064A0F
:100BC000D2690243044BDA6104E0034AD2698243EA
:100BD000014BDA61704700000010024029B1064A5B
:100BE00092690243044B9A6104E0034A926982438A
:100BF000014B9A617047000000100240704710B529
:100C000000F002F810BD00000CB50020019000902B
:100C10003348006840F480303149086000BF3048F4
:100C2000006800F4003000900198401C019000988A
:100C300018B90198B0F5A06FF1D12948006800F407
:100C4000003010B10120009001E0002000900098D9
:100C5000012843D12348006840F010002149086072
:100C60000846006820F0030008600846006840F06D
:100C7000020008601A484068194948600846406800
:100C800048600846406840F4806048600846406814
:100C900020F47C1048600846406840F4E810486042
:100CA0000846006840F08070086000BF0C4800688B
:100CB00000F000700028F9D00948406820F00300D7
:100CC000074948600846406840F00200486000BF9D
:100CD0000348406800F00C000828F9D10CBD000062
:100CE00000100240002002407047000010B5134879
:100CF000006840F00100114908600846406810494A
:100D000008400E494860084600680E4908400B49F3
:100D100008600846006820F48020086008464068A3
:100D200020F4FE0048604FF41F008860FFF767FF63
:100D30004FF000600449086010BD00000010024040
:100D40000000FFF8FFFFF6FE08ED00E008B5012106
:100D50000920FFF743FF01210A48FFF72FFB10206E
:100D60008DF803000820ADF8000003208DF8020084
:100D700069460548FFF797FA08210348FFF76FFB1C
:100D800008BD000000023000000C014010B5012138
:100D9000880700F03BF801281AD100210D480068AF
:100DA000FFF784FE0C49086000210C480068FFF73B
:100DB000B7FE0B49086000F0CFF9FFF793FB094835
:100DC0000068401C074908600121880700F00FF8FF
:100DD00010BD00000C0000202800002008000020AA
:100DE0002400002048000020CA4302827047CA4302
:100DF0000282704721B1028842F00102028004E0C1
:100E000002884FF6FE731A400280704730B50246E2
:100E1000002000230024158A05EA0103958905EACC
:100E2000010413B10CB1012000E0002030BD1AB163
:100E300083890B43838102E083898B4383817047DD
:100E400001894FF6F87211400181704770B5002496
:100E500000220023058C4FF6FF6635400584028C86
:100E60008388848B4FF68F752C404FF6FC752C4091
:100E70000D882C434FF6FF552A400D894FF6FF761B
:100E800006EA05252A434D8806EA05252A43154D1D
:100E9000A84202D0144DA8421DD14FF2FF752A403E
:100EA0004D894FF6FF7606EA05252A434FF6FF35B2
:100EB0002A408D8806EA05252A434EF6FF752B4009
:100EC0004DF6FF752B408D8906EA05152B43CD891C
:100ED00006EA05152B4383808483CD8885870284A9
:100EE00070BD0000002C01400034014070B50022AC
:100EF00000230024058C4EF6FF7635400584038CD4
:100F00008488828B48F6FF752A404FF6FF452A40B9
:100F10000D884FF6FF7606EA05252A434DF6FF7544
:100F20002B400D8906EA05352B434D8806EA053529
:100F30002B430B4DA84202D00A4DA84208D14BF6D4
:100F4000FF752C408D894FF6FF7606EA85152C43F8
:100F500084808283CD88A0F84050038470BD000057
:100F6000002C01400034014000210180418081803B
:100F7000C180018141818181C18170478187704732
:100F8000A0F8401070470000002202881D4B9842D4
:100F90000ED01D4B98420BD0B0F1804F08D01B4BA8
:100FA000984205D01A4B984202D01A4B984204D16D
:100FB0004FF68F731A404B881A43174B984207D04D
:100FC000164B984204D04FF6FF431A40CB881A4381
:100FD00002808B8883850B8803850A4B98420BD04F
:100FE000094B984208D00E4B984205D00D4B9842C1
:100FF00002D00D4B984201D10B7A038601238382E4
:1010000070470000002C0140003401400004004003
:1010100000080040000C0040001000400014004098
:101020000040014000440140004801401FB501213B
:101030000846FFF7C3FD4FF08040FFF701FF002097
:10104000ADF80A00ADF806006320ADF8080040F2E4
:10105000CF20ADF8040000208DF80C0001A94FF05E
:101060008040FFF791FF01218807FFF7BDFE0122B5
:1010700011469007FFF7DBFE4FF4A060FFF7ACFAD4
:101080001C208DF8000001208DF8030002208DF84F
:10109000010001208DF802006846FFF765FA002183
:1010A0004FF08040FFF7A6FE1FBD000010B540F2D4
:1010B0002551074800F01FF848B1054800F045F8F1
:1010C0000449087040F22551014800F005F810BDB0
:1010D000004800400400002010B50022002340F624
:1010E0006A14A14200D100BF0A1201249440A3B2A5
:1010F000DC43048010BD70B50246002400230025A7
:10110000002040F66A16B14200D100BFC1F342157B
:1011100001F01F03012606FA03F3012D02D196897F
:10112000334006E0022D02D1168A334001E0968A50
:1011300033400C12012606FA04F41688344013B129
:101140000CB1012000E0002070BD01468888C0F38A
:101150000800704700BFFEE7154800681549096898
:101160000844154908601248006812490968401A85
:101170001249086010480068642802DD64200E49A6
:1011800008600D4800680A2802DA0A200A49086047
:101190000A480068642802DD64200849086007489E
:1011A00000680A2802DA0A20044908607047000033
:1011B0002800002024000020180000201C0000202F
:1011C000FFF758F9FFF7A8FAFFF7A2F9FFF704FCB9
:1011D000FFF72CFF00F090FCFFF7B8FD3CA20121C7
:1011E0000846FFF7C4FB3CA201210320FFF7BFFB29
:1011F0003AA209210320FFF7BAFB0520FFF730F8D8
:1012000001218807FFF7F6FD08213548FFF729F986
:101210005CE000F0B3F840213148FFF722F93220BA
:10122000FFF740F90423224608210120FFF74AFB7B
:10123000012000F05FF8054601232A4619460220E6
:10124000FFF716FB022000F055F8054601232A4659
:1012500004210220FFF70CFB032000F04BF80546A9
:1012600001232A4607210220FFF702FB042000F099
:1012700041F8054601232A460A210220FFF7F8FA21
:10128000052000F037F8054601232A460D210220EB
:10129000FFF7EEFA04231348194602680320FFF70C
:1012A00033FB042310480B2102680320FFF72CFBBB
:1012B00003230E480D2102680120FFF725FB0123BF
:1012C0000B48194602680420FFF71EFBA1E7000047
:1012D0005278446174613A0055313A0055323A000F
:1012E000000C0140180000201C00002048000020D5
:1012F0004400002010B50446012C08D1C1031C484D
:10130000FFF7A4F81B4908600846006810BD022CCE
:1013100008D1E1021648FFF799F816490860084617
:101320000068F3E7032C09D14FF400611048FFF780
:101330008DF81049086008460068E7E7042C08D1DA
:10134000A1010B48FFF782F80A49086008460068C7
:10135000DCE7052C09D14FF400410748FFF776F888
:101360000449086008460068D0E70020CEE7000086
:101370000008014010000020000C014010B50120C1
:10138000FFF7B8FF01281ED10220FFF7B3FF0128A5
:1013900019D10320FFF7AEFFA8B90420FFF7AAFF79
:1013A000012810D10520FFF7A5FF01280BD100204F
:1013B000FE490860FE4908600120FE4908600020DF
:1013C000FD49086091E30120FFF794FF01281AD13D
:1013D0000220FFF78FFFB0B90320FFF78BFF90B912
:1013E0000420FFF787FF01280DD10520FFF782FFBA
:1013F000012808D1F148ED4908600120EC49086056
:10140000EC49086071E30120FFF774FF01281BD14C
:101410000220FFF76FFF012816D10320FFF76AFFB4
:1014200090B90420FFF766FF70B90520FFF762FF4F
:10143000012809D14FF07E50DC4908600120DC49C9
:101440000860DC49086050E30120FFF753FF0128E2
:101450001CD10220FFF74EFFC0B90320FFF74AFF5F
:10146000012813D10420FFF745FF01280ED10520E4
:10147000FFF740FF012809D1D148CC49086002207C
:10148000CB4908600120CB4908602EE30120FFF71B
:1014900031FF01281CD10220FFF72CFF012817D1B2
:1014A0000320FFF727FF012812D10420FFF722FFB6
:1014B00070B90520FFF71EFF012809D1C148BB49BB
:1014C00008600220BA4908600120BA4908600CE3AC
:1014D0000120FFF70FFFE0B90220FFF70BFFC0B9B3
:1014E0000320FFF707FF012813D10420FFF702FFB5
:1014F00001280ED10520FFF7FDFE012809D1B248D1
:10150000AA4908600320AA4908600120A949086087
:10151000EBE20120FFF7EEFE01281BD10220FFF7CE
:10152000E9FE012816D10320FFF7E4FE012811D1BE
:101530000420FFF7DFFE68B90520FFF7DBFE48B99E
:10154000A2489A49086003209949086001209949F6
:101550000860CAE20120FFF7CDFEE8B90220FFF7DC
:10156000C9FE012818D10320FFF7C4FE012813D1BA
:101570000420FFF7BFFE01280ED10520FFF7BAFEB9
:10158000012809D1924889490860042088490860E7
:10159000012088490860A8E20120FFF7ABFE01287E
:1015A0001CD10220FFF7A6FE012817D10320FFF768
:1015B000A1FE012812D10420FFF79CFE01280DD1C5
:1015C0000520FFF797FE48B9824878490860042053
:1015D0007749086001207749086086E20120FFF71B
:1015E00089FEE0B90220FFF785FEC0B90320FFF7AE
:1015F00081FEA0B90420FFF77DFE01280FD1052050
:10160000FFF778FE01280AD14FF041406749086092
:1016100005206749086001206649086065E20120ED
:10162000FFF768FEF8B90220FFF764FED8B903207F
:10163000FFF760FEB8B90420FFF75CFE98B90520FB
:10164000FFF758FE01280ED16348006804280AD12C
:101650004FF0414055490860052055490860012078
:101660005449086041E20120FFF744FEB8B9022066
:10167000FFF740FE98B90320FFF73CFE78B904203D
:10168000FFF738FE58B90520FFF734FE38B9524845
:101690000068012803D147480068012839D001209B
:1016A000FFF728FE012817D10220FFF723FE98B983
:1016B0000320FFF71FFE78B90420FFF71BFE58B97F
:1016C0000520FFF717FE38B943480068012803D109
:1016D0003848006801281CD00120FFF70BFEA0BB92
:1016E0000220FFF707FE80BB0320FFF703FE60BB6D
:1016F0000420FFF7FFFD40BB0520FFF7FBFD01289D
:1017000024D135480068012820D12A4800680128E2
:101710001CD10020274908602F480068401C2E4932
:10172000086000214FF08040FFF764FB5F20FFF767
:10173000A7F90A20FFF7AEF94FF4DC70FEF784FD3D
:1017400001218807FFF756FBCFE1FFE70120FFF7F4
:10175000D1FDB8B90220FFF7CDFD98B90320FFF7FE
:10176000C9FD78B90420FFF7C5FD58B90520FFF77A
:10177000C1FD38B918480068022803D10D48006837
:10178000012853D00120FFF7B5FD012831D10220F7
:10179000FFF7B0FD48B90320FFF7ACFD28B90420DE
:1017A000FFF7A8FD08B9052018E022E00800002096
:1017B0000C0000201400002020000020000080BF4A
:1017C000000020C000002040000040C00000404059
:1017D0000000A0C00000A04044000020FFF78AFDE8
:1017E00038B9C2480068022803D1C14800680128FE
:1017F0001CD00120FFF77EFDA0BB0220FFF77AFD81
:1018000080BB0320FFF776FD60BB0420FFF772FD6D
:1018100040BB0520FFF76EFD012824D1B3480068C6
:10182000022820D1B248006801281CD10020B0490C
:101830000860AE480068401CAC49086000214FF0C9
:101840008040FFF7D7FA5F20FFF71AF90520FFF76E
:1018500021F94FF4DC70FEF7F7FC01218807FFF750
:10186000C9FA42E1FFE70120FFF744FDB8B90220C1
:10187000FFF740FD98B90320FFF73CFD78B904203D
:10188000FFF738FD58B90520FFF734FD38B9974800
:101890000068032803D196480068012839D0012048
:1018A000FFF728FD012817D10220FFF723FD98B983
:1018B0000320FFF71FFD78B90420FFF71BFD58B97F
:1018C0000520FFF717FD38B988480068032803D1C1
:1018D0008748006801281CD00120FFF70BFDA0BB42
:1018E0000220FFF707FD80BB0320FFF703FD60BB6D
:1018F0000420FFF7FFFC40BB0520FFF7FBFC01289D
:1019000024D17A480068032820D17948006801284A
:101910001CD100207649086074480068401C734957
:10192000086000214FF08040FFF764FA5F20FFF766
:10193000A7F80A20FFF7AEF84FF4CD70FEF784FC4D
:1019400001218807FFF756FACFE0FFE70120FFF7F4
:10195000D1FCB8B90220FFF7CDFC98B90320FFF7FE
:10196000C9FC78B90420FFF7C5FC58B90520FFF77A
:10197000C1FC38B95D480068042803D15C480068A0
:10198000012839D00120FFF7B5FC012817D102202A
:10199000FFF7B0FC98B90320FFF7ACFC78B904203E
:1019A000FFF7A8FC58B90520FFF7A4FC38B94F4849
:1019B0000068042803D14E48006801281CD001208B
:1019C000FFF798FC50BB0220FFF794FC30BB0320CC
:1019D000FFF790FC10BB0420FFF78CFCF0B905204A
:1019E000FFF788FC012819D140480068042815D168
:1019F0003F480068012811D100203D4908603B485C
:101A00000068401C3949086000214FF08040FFF712
:101A1000F1F908213748FEF722FD66E00120FFF7C3
:101A200069FCB8B90220FFF765FC98B90320FFF7FD
:101A300061FC78B90420FFF75DFC58B90520FFF779
:101A400059FC38B929480068052803D1284800689E
:101A5000012839D00120FFF74DFC012817D10220C1
:101A6000FFF748FC98B90320FFF744FC78B904203D
:101A7000FFF740FC58B90520FFF73CFC38B91B487C
:101A80000068052803D11A48006801281CD00120ED
:101A9000FFF730FC48BB0220FFF72CFC28BB0320DB
:101AA000FFF728FC08BB0420FFF724FCE8B9052059
:101AB000FFF720FC012818D10C480068052814D134
:101AC0000B480068012810D1002009490860074828
:101AD0000068401C0549086000214FF08040FFF776
:101AE00089F908210348FEF7BAFC10BD4400002024
:101AF00014000020000C014008B501210420FFF76C
:101B00006DF801210820FFF769F848208DF80300DF
:101B10004FF41940ADF8000003208DF8020069462B
:101B20000848FEF7C0FB48208DF803004CF2300057
:101B3000ADF8000003208DF8020069460248FEF768
:101B4000B2FB08BD00080140000C014090EA010F03
:101B500048BF81F0004100F16C81421A3CBF801AFD
:101B600089184FEAD0524FF07F4C1CEA410FA2EB8C
:101B7000D15318BF9CEA026F00F03B804FF0004C3D
:101B80004CEA00204CEA012121FA03FC10EB0C0C7A
:101B90001ED202F1FF325FEA1C2040EBC25038BF78
:101BA00070471CF07F0F4FEA400C18BFBCF17F4F0D
:101BB00038BF7047C3F12003994008BF20F00100EF
:101BC000BCF17F4F38BF7047A0F1C04000F01BB997
:101BD0004FEA3C00000A40EBC25028BF1CF0FF0F48
:101BE0004FEA400CE6D018BFBCF17F4F38BF7047BA
:101BF000EAE79CEA026F05D010EA5C0F08BF00F02C
:101C00000040704710B500F0B8F800BF64FBBE3E5E
:101C100041000B0ED3F19E0208D950F400034FEAA5
:101C2000032323FA02F048BF4042704710B500F08A
:101C3000A4F800BF49922480002070476FF0004252
:101C400082EA20007047000010F0004148BF404287
:101C5000B0FA80F310FA03F2C3F19D030BD051EAFE
:101C6000C35101EB1220530638BF704700F1010049
:101C700008BF20F0010070474FF47F0C1CEAD0121F
:101C80001EBF1CEAD11392EA0C0F93EA0C0F00F06E
:101C9000478090EA010F48BF42F480724FF0004C39
:101CA0004CEA00204CEA012102EB0302A0FB0113E5
:101CB000A2F50002002918BF43F001035B0028BF12
:101CC0004FEA330342EB22425FEA132C4CEBC25043
:101CD0002EBFBCEB436FB2F57C0F70474FEA036C2D
:101CE000BCF1004F08BF20F00100B2F57C0F38BFF7
:101CF00070470BD582F0FF0212F5803FC8BF7047D6
:101D000000F1C040D8BF00F00040704700F5000C63
:101D10005FEA4C0C48BF7047B0F1C04000F073B8A8
:101D200090EA010F0CEAD11348BF42F48072624579
:101D300038BF634504D280EA010000F000407047DC
:101D400010B500F01AF800BF8900013E00F007B896
:101D500000F009B85FEA410C5FEA1C6C08D080EA29
:101D6000010000F050B85FEA400C5FEA1C6CF6D14D
:101D70004FF00040A0F5800070470EF1020E2EF0EB
:101D8000030E5EF8044B244204D44FEA4102B2F140
:101D90007F4F11D84FEA4003B3F17F4F0CD80ED1DB
:101DA0004FEAD07CB2F17F4F0CEB4C0C0CF1020CE3
:101DB00008BF4CEBD17C04E04FF0080C01E04FEA87
:101DC000D17C0CEB4C0324FA03F404F00704B4F1C7
:101DD000040C06D20EEB840CBDE810404CF0010C54
:101DE0006047DFE80CF0070802024FF00040A0F562
:101DF000800010BD0846420018BFD2F1807288BF33
:101E000000F0004010BDFF2141EAD050C0057047EE
:101E100080F0004090EA010F7FF59FAE81F0004115
:101E200000F007B890EA010F48BF81F000413FF58C
:101E300094AE421A04D882F00042A0EB0200114492
:101E40004FEAD0524FF07F4C1CEA410FA2EBD15326
:101E500018BF9CEA026F4AD04FF0004C4CEA0020B9
:101E60004CEA012121FA03FCB0EB0C0C0FD412F068
:101E7000FE0F36D05FEA4C001DD5001240EBC25079
:101E800038BF70471CF03F0F18BF70470BE0A2F13E
:101E900001025FEA1C2040EBC25038BF70471CF0C3
:101EA0007F0F18BF7047C3F12003994014BF401E35
:101EB00020F00100704780084FEA122308BF7047E6
:101EC000B0FA80FCA2EB0C02CCF1280C60FA0CF00A
:101ED00093EA122F04BF00EBC25070474FEAC37061
:101EE0007047130A5FEADC1008BF7047F6E79CEA08
:101EF000026F04D010EA5C0F08BF0020704710B5D5
:101F0000FFF73BFF40DFF63E81F0004070470000E6
:101F100000000000000000000000000000000000C1
:101F200000F8000000000000003330000000001046
:101F30000C06100C0600000000000000000040C06D
:101F40007840C0784000043F04043F04040000705F
:101F500088FC08300000001820FF211E0000F00857
:101F6000F000E018000000211C031E211E0000F0FC
:101F70000888700000001E21232419272110101644
:101F80000E00000000000000000000000000000043
:101F900000E01804020000000007182040000002C2
:101FA0000418E00000000040201807000000404036
:101FB00080F0804040000202010F01020200000098
:101FC00000F0000000000101011F010101000000FC
:101FD00000000000000080B0700000000000000061
:101FE00000000000000000010101010101010000EA
:101FF0000000000000000030300000000000000081
:10200000000080601804006018060100000000E075
:1020100010080810E000000F102020100F00001022
:1020200010F8000000000020203F20200000007079
:102030000808088870000030282422213000003071
:102040000888884830000018202020110E00000069
:10205000C02010F8000000070424243F240000F8EA
:102060000888880808000019212020110E0000E0CF
:10207000108888180000000F112020110E00003871
:102080000808C83808000000003F00000000007089
:10209000880808887000001C222121221C0000E012
:1020A00010080810E0000000312222110F0000008B
:1020B00000C0C00000000000003030000000000040
:1020C00000800000000000008060000000000000B0
:1020D0008040201008000001020408102000404049
:1020E000404040404000040404040404040000088C
:1020F0001020408000000020100804020100007041
:1021000048080808F0000000003036010000C03028
:10211000C828E810E0000718272423140B0000004B
:10212000C038E0000000203C23020227382008F8D5
:10213000888888700000203F202020110E00C030C9
:10214000080808083800071820202010080008F8A0
:1021500008080810E000203F202020100F0008F899
:102160008888E8081000203F20202320180008F865
:102170008888E8081000203F200003000000C030DD
:1021800008080838000007182020221E020008F85E
:1021900008000008F808203F210101213F20000825
:1021A00008F8080800000020203F20200000000060
:1021B0000808F8080800C08080807F00000008F848
:1021C00088C028180800203F20012638200008F881
:1021D000080000000000203F20202020300008F8E8
:1021E000F800F8F80800203F003F003F200008F802
:1021F00030C00008F808203F200007183F00E0101A
:1022000008080810E0000F10202020100F0008F828
:1022100008080808F000203F210101010000E0103B
:1022200008080810E0000F18242438504F0008F860
:10223000888888887000203F2000030C30200070C0
:102240008808080838000038202121221C001808BE
:1022500008F8080818000000203F2000000008F8D7
:1022600008000008F808001F202020201F00087820
:10227000880000C83808000007380E010000F80880
:1022800000F80008F800033C0700073C03000818AA
:1022900068808068180820302C03032C3020083810
:1022A000C800C83808000000203F200000001008C7
:1022B0000808C8380800203826212020180000000F
:1022C00000FE020202000000007F40404000000CBF
:1022D00030C000000000000000010638C00000020D
:1022E0000202FE000000004040407F0000000000AD
:1022F00004020202040000000000000000000000D0
:1023000000000000000080808080808080800002CB
:1023100002040000000000000000000000000000B7
:102320008080808000000019242222223F2008F8AB
:10233000008080000000003F112020110E000000EE
:10234000008080800000000E11202020110000007D
:1023500000808088F800000E112020103F2000002F
:10236000808080800000001F222222221300008033
:1023700080F0888888180020203F2020000000007E
:10238000808080808000006B94949493600008F8B3
:10239000008080800000203F210000203F2000803E
:1023A0009898000000000020203F2020000000003E
:1023B00000809898000000C08080807F000008F8AE
:1023C000000080808000203F24022D302000000883
:1023D00008F8000000000020203F2020000080803E
:1023E000808080808000203F20003F20003F808050
:1023F000008080800000203F210000203F2000005E
:10240000808080800000001F202020201F0080800E
:1024100000808000000080FFA12020110E0000003D
:10242000008080808000000E112020A0FF8080802E
:1024300080008080800020203F21200001000000DB
:1024400080808080800000332424242419000080B0
:1024500080E0808000000000001F202000008080BD
:10246000000000808000001F202020103F2080807E
:1024700080000080808000010E300806010080800E
:102480000080008080800F300C030C300F00008033
:102490008000808080000020312E0E31200080805E
:1024A00080000080808080818E701806010000808E
:1024B0008080808080000021302C222130000000AC
:1024C0000000807C020200000000003F404000004D
:1024D0000000FF00000000000000FF0000000002FC
:1024E000027C800000000040403F00000000000629
:1024F00001010202040400000000000000000000CE
:1025000020250008000000204C00000028010008E1
:102510006C2500084C0000206406000044010008FF
:1025200000000000000000000000000000000000AB
:10253000000000000000000000000000000000009B
:10254000000000000000000000000000000000008B
:10255000000000000000000000000000000000007B
:0C2560000000000001000000000000006E
:040000050800018965
:00000001FF
